:100000000C945E000C9473000C9473000C947300B9
:100010000C9473000C9473000C9473000C94730094
:100020000C9473000C9473000C9473000C94730084
:100030000C9473000C9473000C9473000C94730074
:100040000C9473000C9473000C9473000C94730064
:100050000C9473000C9473000C9473000C94730054
:100060000C9473000C9473004C696E652032206C04
:100070006F6E676572207468616E2031342063682A
:100080006172616374657273004C696E6520312022
:100090006C6F6E676572207468616E203134206306
:1000A0006861726163746572730A0007081314143F
:1000B00013080700100808080810000011241FBECC
:1000C000CFEFD8E0DEBFCDBF11E0A0E0B1E0ECEBB8
:1000D000F4E002C005900D92AE31B107D9F70E944D
:1000E00070010C945C020C940000429A85E08A95A1
:1000F000F1F7000042980895CF93C82F662341F18D
:10010000409A4198529A539A549A559A5D985C989D
:100110005B985A98C7FD5D9AC6FD5C9AC5FD5B9ACF
:10012000C4FD5A9A0E9475005D985C985B985A9835
:10013000C3FD5D9AC2FD5C9AC1FD5B9AC0FD5A9AEF
:100140000E9475005A9A5B9A5C9A5D9ACF910895C5
:100150004098D7CF4098419A5298539854985598C0
:10016000429A85E08A95F1F700004A9B1BC080E126
:100170004B9980624C9980644D998068429895E0D3
:100180009A95F1F70000429A95E09A95F1F70000F0
:100190004A9981604B9982604C9984604D9988603E
:1001A0004298089580E0E4CF0E94AA0087FDFCCF2A
:1001B00085E18A95F1F700000C94AA00CF93C82F2F
:1001C0000E94D40060E08C2FCF910C947C00CF93E0
:1001D000C82F0E94D40061E08C2FCF910C947C003A
:1001E000611103C080580C94DE008054FCCF0E9443
:1001F000D40090E0089581E00C94DE0082E00C943D
:10020000DE00CF93C82F0E94D400CA3049F4803456
:1002100028F080E08058CF910C94DE0080E4FACF83
:1002200061E08C2FCF910C947C00CF93DF93EC0195
:100230008991811103C0DF91CF9108950E9401013E
:10024000F7CFCF93DF93EC01FE01849121968111CA
:1002500003C0DF91CF9108950E940101F5CFCF93A4
:10026000C82F389A399A3A9A529A539A549A559A68
:100270008FEF99EF0197F1F700C000005B9A5A9A4F
:100280000E9475008FE19EE40197F1F700C0000025
:100290000E9475008FEF90E00197F1F700C0000019
:1002A0000E9475008FEF90E00197F1F700C0000009
:1002B0005A980E9475008FEF90E00197F1F700C007
:1002C000000088E20E94DE0088E00E94DE000E94BA
:1002D000FB0086E00E94DE008C2FCF910C94DE00A4
:1002E000CF93DF9300D000D000D01F92CDB7DEB700
:1002F0008CE00E942F010E94FB0080E091E00E94B0
:10030000150187EC0E94DE008AE30E9401012FEFB5
:1003100083E294EF215080409040E1F700C000005C
:100320000E94FB00EFEFF3ED20E3E150F0402040AE
:10033000E1F700C000008EE00E94DE008CE091E05A
:100340000E9415018FEF93E2E4EF81509040E0406E
:10035000E1F700C000000E94FB00FFEF23ED80E307
:10036000F15020408040E1F700C0000089E890E0B3
:100370000E94210188E690E00E94210188E10E940C
:10038000DE009FEFE3E2F4EF9150E040F040E1F750
:1003900000C000008CE00E94DE002FEF83ED90E3B0
:1003A000215080409040E1F700C000000E94FB0017
:1003B000EFEFF3ED20E3E150F0402040E1F700C023
:1003C00000004AE0BE016F5F7F4F86E890E00E9428
:1003D0002702CE0101960E9415018FEF93E2E4EF10
:1003E00081509040E040E1F700C000000E94FB0017
:1003F000FFEF23ED80E3F15020408040E1F700C0A3
:10040000000082E191E00E94150180E40E94DE007C
:100410000BEA10E0F80184910E94E7000F5F1F4F84
:10042000F0E00B3B1F07B1F780EC0E94DE0080E09C
:100430000E94010181E00E9401012FEF83E294EF0D
:10044000215080409040E1F700C0000054CFBB270E
:100450004A3031F4992322F4BDE2909581959F4F63
:100460000C943302BB27FB015527AA27880F991F3D
:10047000AA1FA41710F0A41B83955051B9F7A05DD3
:10048000AA3308F0A95DA193009779F7B111B19350
:100490001192CB010C944C02DC01FC01672F71918D
:1004A0007723E1F7329704C07C916D93708362915A
:0C04B000AE17BF07C8F30895F894FFCF03
:1004BC004C4344205465737420350A004375724FC5
:0E04CC006E00436F707972696768743A2000A1
:00000001FF
