:100000000C9434000C943E000C943E000C943E0082
:100010000C943E000C943E000C943E000C943E0068
:100020000C943E000C943E000C943E000C943E0058
:100030000C943E000C943E000C943E000C943E0048
:100040000C943E000C943E000C943E000C943E0038
:100050000C943E000C943E000C943E000C943E0028
:100060000C943E000C943E0011241FBECFEFD8E04C
:10007000DEBFCDBF0E944E000C94AA000C9400007D
:10008000EAE7F0E0808180688083808183628083FA
:10009000ECE7F0E080818166808308958AB18FEF7C
:1000A0008AB90E9440002FEF33E0E1E0F0E0399898
:1000B00080917A00806480937A0080917A0084FF36
:1000C000FCCF40917800809179001BB8429546950D
:1000D0004695437054E0859FC0011124842B43E072
:1000E000880F991F4A95E1F7B9010E94960090E0A8
:1000F00080E08617970779F48FEF93ED40E3815006
:1001000090404040E1F700C0000080917A0080619B
:1001100080937A00CCCF4BB1DF01082E01C0AA0F2B
:100120000A94EAF74A2B4BB90196E3CFAA1BBB1BF3
:1001300051E107C0AA1FBB1FA617B70710F0A61BE7
:10014000B70B881F991F5A95A9F780959095BC0108
:08015000CD010895F894FFCFE2
:00000001FF
