:100000000C9434000C943E000C943E000C943E0082
:100010000C943E000C943E000C943E000C943E0068
:100020000C943E000C943E000C943E000C943E0058
:100030000C943E000C943E000C943E000C943E0048
:100040000C943E000C943E000C943E000C943E0038
:100050000C943E000C943E000C943E000C943E0028
:100060000C943E000C943E0011241FBECFEFD8E04C
:10007000DEBFCDBF0E9461000C94C7000C9400004D
:10008000EAE7F0E0808180688083808187628083F6
:10009000ECE7F0E080818166808387E690E09093D2
:1000A000C5008093C40088E18093C10086E08093FE
:1000B000C20008959091C00095FFFCCF8093C600C8
:1000C00008958AB18FEF8AB90E94400032E0F32E82
:1000D000CFEFD3E001E010E0F7B880917A008064C0
:1000E00080937A0080917A0084FFFCCF8091790020
:1000F0002091780034E0839FC00111242295269539
:1001000026952370822B23E0880F991F2A95E1F70B
:10011000BE010E94B3006B01CB010E945A001BB8C4
:1001200090E080E08C159D059CF08FEF93ED20E32F
:10013000815090402040E1F700C00000109279000B
:100140001092780080917A00806180937A00C4CF09
:100150002BB1A801082E01C0440F0A94EAF7242B02
:100160002BB90196DFCFAA1BBB1B51E107C0AA1F09
:10017000BB1FA617B70710F0A61BB70B881F991F48
:100180005A95A9F780959095BC01CD010895F894F2
:02019000FFCF9F
:00000001FF
