:100000000C9434000C943E000C943E000C943E0082
:100010000C943E000C943E000C943E000C943E0068
:100020000C943E000C943E000C943E000C943E0058
:100030000C943E000C943E000C943E000C943E0048
:100040000C943E000C943E000C943E000C943E0038
:100050000C943E000C943E000C943E000C943E0028
:100060000C943E000C943E0011241FBECFEFD8E04C
:10007000DEBFCDBF0E9462000C9483000C94000090
:100080003898EAE7F0E08081806880838081876229
:100090008083ECE7F0E080818062808387E690E0F7
:1000A0009093C5008093C40088E18093C10086E0EE
:1000B0008093C20008959091C00095FFFCCF80937B
:1000C000C6000895579A0E94400080917A0080648B
:1000D00080937A0080917A0084FFFCCF8091790030
:1000E0009091780024E0829FC001112423E096952E
:1000F00087952A95E1F70E945B0080917A008061E4
:0A01000080937A00E2CFF894FFCF5D
:00000001FF
