:100000000C9434000C943E000C943E000C943E0082
:100010000C943E000C943E000C943E000C943E0068
:100020000C943E000C943E000C943E000C943E0058
:100030000C943E000C943E000C943E000C943E0048
:100040000C943E000C943E000C943E000C943E0038
:100050000C943E000C943E000C943E000C943E0028
:100060000C943E000C943E0011241FBECFEFD8E04C
:10007000DEBFCDBF0E944F000C94A9000C9400007D
:100080003998EAE7F0E0808180688083808180622F
:100090008083ECE7F0E080818166808308958AB1F7
:1000A0008FEF8AB90E944000EFEFF3E0C1E0D0E0AB
:1000B00080917A00806480937A0080917A0084FF36
:1000C000FCCF80917A00806180937A0080917900E2
:1000D0002091780034E0839FC00111242295269559
:1000E00026952370822B23E0880F991F2A95E1F72C
:1000F000BF010E94950090E080E08617970751F4B9
:100100008FEF93ED20E3815090402040E1F700C055
:100110000000CECF2BB1AE01082E01C0440F0A94CF
:10012000EAF7242B2BB90196E8CFAA1BBB1B51E1A0
:1001300007C0AA1FBB1FA617B70710F0A61BB70B57
:10014000881F991F5A95A9F780959095BC01CD01FC
:060150000895F894FFCFB2
:00000001FF
