:100000000C9434000C943E000C943E000C943E0082
:100010000C943E000C943E000C943E000C943E0068
:100020000C943E000C943E000C943E000C943E0058
:100030000C943E000C943E000C943E000C943E0048
:100040000C943E000C943E000C943E000C943E0038
:100050000C943E000C943E000C943E000C943E0028
:100060000C943E000C943E0011241FBECFEFD8E04C
:10007000DEBFCDBF0E944E000C9479000C940000AE
:10008000EAE7F0E0808180688083808183628083FA
:10009000ECE7F0E08081806280830895579A0E94A7
:1000A0004000389880917A00806480937A00809133
:1000B0007A0084FFFCCF209178008091790022950E
:1000C00026952695237034E0839FC0011124822B4E
:1000D00023E0880F991F2A95E1F78C3F9F4038F461
:1000E0005F9A80917A00806180937A00DACF5F987E
:0600F000F8CFF894FFCFE9
:00000001FF
