:100000000C9434000C9449000C9449000C94490061
:100010000C9449000C9449000C9449000C9449003C
:100020000C9449000C9449000C9449000C9449002C
:100030000C9449000C9449000C9449000C9449001C
:100040000C9449000C9449000C9449000C9449000C
:100050000C9449000C9449000C9449000C944900FC
:100060000C9449000C94490011241FBECFEFD8E036
:10007000DEBFCDBF11E0A0E0B1E0ECE1F1E002C0F5
:1000800005900D92A833B107D9F70E946B000C942C
:100090008C000C94000087E690E09093C50080935C
:1000A000C40088E18093C10086E08093C200089577
:1000B0009091C00095FFFCCF8093C6000895CF9328
:1000C000DF93EC018991811103C0DF91CF910895F5
:1000D0000E945800F7CF0E944B0080E091E00E9400
:1000E0005F002FEF83ED90E3215080409040E1F7D7
:1000F00000C0000083E191E00E945F002FEF83EDDC
:1001000090E3215080409040E1F700C0000085E27C
:0C01100091E00E945F00FFCFF894FFCF49
:10011C00452F31392F303238204E696C616B736842
:10012C00690A00452F31392F303238204176696EFB
:10013C006173680A00452F31392F303334204B61FD
:08014C0076696E64750A00007B
:00000001FF
