:100000000C9434000C943E000C943E000C943E0082
:100010000C943E000C943E000C943E000C943E0068
:100020000C943E000C943E000C943E000C943E0058
:100030000C943E000C943E000C943E000C943E0048
:100040000C943E000C943E000C943E000C943E0038
:100050000C943E000C943E000C943E000C943E0028
:100060000C943E000C943E0011241FBECFEFD8E04C
:10007000DEBFCDBF0E946A000C94CF000C9400003C
:10008000F999FECF92BD81BD60BDFA9AF99A0895A3
:1000900087E690E09093C5008093C40088E1809348
:1000A000C10086E08093C20008958091C00087FF60
:1000B000FCCF8091C6000895F999FECF92BD81BD15
:1000C000F89A80B508959091C00095FFFCCF809379
:1000D000C6000895CF92DF92EF92FF920F931F9385
:1000E000CF93DF93CDB7DEB7C456D4400FB6F894A4
:1000F000DEBF0FBECDBF0E9448007E018FEFE81A21
:100100008BEFF80A87016801CE18DF08F8018191AA
:100110008F018D30A9F510E000E00C151D05B1F53B
:100120008E010F5F1F4F6801F12CE12CC7010E9467
:100130005C00F60181936F01FFEFEF1AFF0AE114F3
:1001400084E0F80699F77801ECEFFE1AF801819146
:100150008F010E946300E016F106C1F790E080E095
:10016000CC59DB4F0FB6F894DEBF0FBECDBFDF9189
:10017000CF911F910F91FF90EF90DF90CF90089556
:100180000E945500F80131978083BDCFF70161913E
:100190007F01C8010E9440000F5F1F4FBECFF8943F
:0201A000FFCF8F
:00000001FF
