:100000000C9434000C943E000C943E000C943E0082
:100010000C943E000C943E000C943E000C943E0068
:100020000C943E000C943E000C943E000C943E0058
:100030000C943E000C943E000C943E000C943E0048
:100040000C943E000C943E000C943E000C943E0038
:100050000C943E000C943E000C943E000C943E0028
:100060000C943E000C943E0011241FBECFEFD8E04C
:10007000DEBFCDBF0E9463000C94A7000C9400006B
:1000800087E690E09093C5008093C40088E1809358
:10009000C10086E08093C20008959091C00095FF52
:1000A000FCCF8093C60008958091C00087FFFCCFED
:1000B0008091C6000895F999FECF92BD81BD60BDC3
:1000C000FA9AF99A0895CF93DF93CDB7DEB7D4505B
:1000D0000FB6F894DEBF0FBECDBF0E94400010E007
:1000E00000E0F12CE12C2AE0922EAA24A394B12C5A
:1000F000AC0EBD1EA00EB11E0E945400F5018193EE
:100100005F016801FFEFCF1ADF0A8D30A1F4E1E053
:10011000F0E0EC0FFD1FEC0DFD1D9082AA24A394CE
:10012000B12CAC0EBD1EAE0CBF1CCE14DF0428F4E7
:100130000E5F1F4FDACF8601DFCFF50161915F01BE
:10014000C7010E945B00FFEFEF1AFF0AEECFF894A1
:02015000FFCFDF
:00000001FF
