:100000000C9434000C9446000C9446000C9446006A
:100010000C9446000C9446000C9446000C94460048
:100020000C9446000C9446000C9446000C94460038
:100030000C9446000C9446000C9446000C94460028
:100040000C9446000C9446000C9446000C94460018
:100050000C9446000C9446000C9446000C94460008
:100060000C9446000C94460011241FBECFEFD8E03C
:10007000DEBFCDBF21E0A0E0B1E001C01D92A23003
:10008000B207E1F70E9473000C949D000C940000ED
:1000900087E690E09093C5008093C40088E1809348
:1000A000C10086E08093C20008958091C00087FF60
:1000B000FCCF8091C60008959091C00095FFFCCFC1
:1000C0008093C6000895F999FECF92BD81BD60BDB1
:1000D000FA9AF99A0895F999FECF92BD81BD8FB32E
:1000E0008FBB80B50895CF93DF930E9448000E9494
:1000F00055008D3089F0682F8091000190910101A9
:100100000E946300809100019091010101969093FB
:10011000010180930001EBCFD0E0C0E0CE010E944E
:100120006B000E945C002196CF3F83E0D807B1F7B7
:0E01300090E080E0DF91CF910895F894FFCF2A
:00000001FF
