:100000000C9434000C943E000C943E000C943E0082
:100010000C943E000C943E000C943E000C943E0068
:100020000C943E000C943E000C943E000C943E0058
:100030000C943E000C943E000C943E000C943E0048
:100040000C943E000C943E000C943E000C943E0038
:100050000C943E000C943E000C943E000C943E0028
:100060000C943E000C943E0011241FBECFEFD8E04C
:10007000DEBFCDBF0E9462000C9477000C9400009C
:1000800087E690E09093C5008093C40088E1809358
:10009000C10086E08093C20008959091C00095FF52
:1000A000FCCF8093C60008958091C00087FFFCCFED
:1000B0008091C6000895F999FECF92BD81BDF89A4E
:1000C00080B50895CF93DF930E944000D0E0C0E058
:1000D000CE010E945B000E944D002196C11584E074
:1000E000D807B1F790E080E0DF91CF910895F894C0
:0200F000FFCF40
:00000001FF
