:100000000C9434000C943E000C943E000C943E0082
:100010000C943E000C943E000C943E000C943E0068
:100020000C943E000C943E000C943E000C943E0058
:100030000C943E000C943E000C943E000C943E0048
:100040000C943E000C943E000C943E000C943E0038
:100050000C943E000C943E000C943E000C943E0028
:100060000C943E000C943E0011241FBECFEFD8E04C
:10007000DEBFCDBF0E9471000C94A3000C94000061
:1000800087E690E09093C5008093C40088E1809358
:10009000C10086E08093C20008958091C00087FF70
:1000A000FCCF8091C60008959091C00095FFFCCFD1
:1000B0008093C6000895F999FECF92BD81BD60BDC1
:1000C000FA9AF99A0895F999FECF92BD81BDF89AEE
:1000D000F899FECF80B5882311F080B508958DE0A2
:1000E00008950F931F93CF93DF930E944000D0E0B9
:1000F000C0E00E944D008D3001F560E0CE010E940D
:100100005B002FEF87EA91E6215080409040E1F7B5
:1001100000C0000010E000E0C8010E9463000E94DF
:1001200054000F5F1F4FC017D107B4F790E080E075
:10013000DF91CF911F910F910895682FCE010E94FA
:0A0140005B002196D6CFF894FFCFA4
:00000001FF
